:020000040800F2
:10000000D00E0020ED010008693A00080937000809
:10001000653A00084D050008AB40000800000000EC
:10002000000000000000000000000000993A0008F5
:10003000A5070008000000006D3A0008F93B000821
:10004000070200080702000807020008070200086C
:10005000070200080702000807020008070200085C
:1000600007020008070200080702000891050008BF
:1000700065070008070200080702000807020008D9
:1000800007020008070200080702000861050008CF
:1000900051050008070200080702000807020008CF
:1000A00007020008993C0008070200080702000840
:1000B00007020008070200080702000807020008FC
:1000C00007020008070200080702000807020008EC
:1000D00007020008070200080702000807020008DC
:1000E00007020008070200080702000800000000DD
:1000F0000000000000000000000000000000000000
:1001000000000000000000000702000807020008CD
:10011000070200080702000807020008070200089B
:10012000070200080702000807020008070200088B
:100130000702000800000000000000008105000820
:1001400071050008070200080702000807020008FE
:1001500000F002F800F03AF80AA090E8000C82449F
:100160008344AAF10107DA4501D100F02FF8AFF27C
:10017000090EBAE80F0013F0010F18BFFB1A43F085
:1001800001031847104C0000304C0000103A24BF07
:1001900078C878C1FAD8520724BF30C830C144BFEC
:1001A00004680C607047000000230024002500262E
:1001B000103A28BF78C1FBD8520728BF30C148BFCA
:1001C0000B6070471FB51FBD10B510BD00F0CFF814
:1001D0001146FFF7F7FF03F087FF00F0EDF803B4D7
:1001E000FFF7F2FF03BC00F0F5F800000948804774
:1001F00009480047FEE7FEE7FEE7FEE7FEE7FEE709
:10020000FEE7FEE7FEE7FEE704480549054A064B20
:1002100070470000953C000851010008D0080020FC
:10022000D00E0020D00A0020D00A002053EA020C91
:1002300000F069802DE9F04B4FF00006002B1FBF46
:10024000B3FA83F503FA05F424FA05F65E4012BF0B
:100250001643B2FA82F502FA05F4C5F120051EBF75
:1002600022FA05FC44EA0C04203556EA044C4FEA15
:10027000144418BF641C4FF000084FF0000990426E
:1002800071EB030C39D3002919BFB1FA81F701FAD8
:1002900007F6B0FA80F700FA07F6C7F120071EBF8D
:1002A00020FA07FC46EA0C062037B6FBF4FCA7EB65
:1002B0000507103F07F01F0BCBF120060CFA0BFBD4
:1002C0002CFA06F644BFB3460026202FA4BF5E4694
:1002D0004FF0000B5BEA060C08BF4FF0010B19EB67
:1002E0000B09ABFB027C48EB0608C01B06FB02CCEB
:1002F0000BFB03CC71EB0C01C1E70B4602464146F8
:100300004846BDE8F08B13B54FF000004FF00001F8
:10031000AFF30080BDE81C4070474FF0000200B50D
:10032000134694469646203922BFA0E80C50A0E818
:100330000C50B1F12001BFF4F7AF090728BFA0E8C6
:100340000C5048BF0CC05DF804EB890028BF40F892
:10035000042B08BF704748BF20F8022B11F0804FD4
:1003600018BF00F8012B70477047704770477546FB
:1003700000F02CF8AE4605006946534620F0070011
:10038000854618B020B5FFF73FFFBDE820404FF08D
:1003900000064FF000074FF000084FF0000B21F06F
:1003A0000701AC46ACE8C009ACE8C009ACE8C0093C
:1003B000ACE8C0098D46704710B50446AFF3008025
:1003C0002046BDE81040FFF70ABF00000048704714
:1003D0006C08002001491820ABBEFEE72600020091
:1003E000704770B5044600252068806800F0010061
:1003F00018B32068806820F001002168886001F04F
:10040000D7FD054613E001F0D3FD401B02280ED9AD
:100410002068806800F0010048B1A06A40F0100038
:10042000A062E06A40F00100E062012070BD206837
:10043000806800F001000028E5D10020F6E770B5E3
:1004400005466C6AA06A00F05000E0B9A06A40F46A
:100450000070A0622068806800F46020B0F5602F12
:100460000DD1207B58B9A06A20F48070A062A06AE8
:1004700000F4805018B9A06A40F00100A062204644
:1004800000F0D0FA03E0206A016B2846884770BD6F
:1004900070B505466C6AA06A40F04000A062E06A50
:1004A00040F00400E062204600F0BEFA70BD70B576
:1004B0000446656A284600F0B6FA70BD38B50446B1
:1004C0000025002000902068806800F0010078BBC3
:1004D0002068806840F00100216888601948006841
:1004E0001949B0FBF1F0009002E00098401E009026
:1004F00000980028F9D101F05BFD054619E001F0F4
:1005000057FD401B022814D92068806800F00100C4
:1005100078B9A06A40F01000A062E06A40F00100E3
:10052000E06200BF002084F8240000BF012038BD35
:1005300005E02068806800F001000028DFD000207E
:10054000F5E700007800002040420F0000BFFEE702
:1005500010B5024800F032FE10BD0000F00000208F
:1005600010B5024800F02AFE10BD0000F000002087
:1005700010B5024800F022FE10BD00001801002056
:1005800010B5024800F01AFE10BD0000180100204E
:100590002DE9F04FADF2E44D002500244FF4C87171
:1005A000D4A8FFF7BAFE4FF4C87170A8FFF7B5FEE4
:1005B0004FF4C8710CA8FFF7B0FE4FF0640B642035
:1005C0000B900A90002009900890002681468246F0
:1005D000524801F0E9F800BF19E0514850F82500F1
:1005E000D4A941F82400681C85B24D4850F8250074
:1005F00070A941F82400681C85B2494850F82500CC
:100600000CA941F82400601C84B2681C85B2B5F5C1
:10061000967FE2DB00240DE0D4A850F824000644C5
:1006200070A850F8240081440CA850F8240082449B
:10063000601C84B2642CEFDB6420B6FBF0F6B9FBDF
:10064000F0F9BAFBF0FA304603F062FF02460B46BF
:10065000CDE906013348344903F002FE074603F0B2
:10066000CDFD324908600846006804F063F8CDE922
:100670000201484603F04CFF07462D4A2D4B03F07C
:100680005BFFCDE90001DDE9022303F055FF002205
:10069000294BCDE9040103F0E3FDCDE9060103F0A8
:1006A000ADFD264908602148006804F043F807467C
:1006B0008846504603F02CFF214A224BCDE9000129
:1006C00003F03AFF3A464346CDE9020103F034FF16
:1006D0000022194BCDE9040103F0C2FDCDE906016A
:1006E00003F08CFD1849086014480168174804F0AD
:1006F000D1F90746164904F0B7F8164908601248C0
:100700000168154804F0C6F90746144904F0ACF82E
:10071000134908600DF2E44DBDE8F08FAC000020F5
:10072000CC0100207A36AB3EB738B3400000002041
:10073000D11886000264F93F00FEAF40040000209B
:100740007EEB30BF2EC808401C0000200000C842CD
:100750000000A040080000200000C0400000204130
:100760002000002010B5034801F01EF803F022FA23
:1007700010BD00008801002030B590F840500124E1
:10078000AC40C56B6C60046863604468102C04D195
:100790000468A2600468E16003E00468A160046882
:1007A000E26030BD704772B600BFFEE7F8B50446A0
:1007B00000260020009000BF94F82400012801D1F9
:1007C0000220F8BD012084F8240000BF2046FFF776
:1007D00008FE0646002E6CD1A06A20F4885040F036
:1007E0000200A062022001F0BBFC35490968B1FBA0
:1007F000F0F04000009002E00098401E0090009849
:100800000028F9D12046FFF759FE2068806840F0A3
:1008100008002168886001F0CBFB054616E001F076
:10082000C7FB401B0A2811D92068806800F0080027
:1008300060B1A06A20F0020040F01000A06200BF8A
:10084000002084F8240000BF0120BAE720688068F7
:1008500000F008000028E2D12068806840F0040021
:100860002168886001F0A4FB054616E001F0A0FBBA
:10087000401B0A2811D92068806800F0040060B18C
:10088000A06A20F0020040F01000A06200BF00202B
:1008900084F8240000BF012093E72068806800F0FE
:1008A00004000028E2D1A06A20F0020040F001001C
:1008B000A06200BF002084F8240000BF304680E71B
:1008C0007800002038B5024600230020009000BFC9
:1008D00092F82400012801D1022038BD012082F8BD
:1008E000240000BF4868072812D21068406B0C79BA
:1008F000641E04EB84051F24AC40A0430D796D1EDB
:1009000005EB85050C68AC4020431468606327E064
:1009100048680D2812D21068006B0C79E41F04EBB4
:1009200084051F24AC40A0430D79ED1F05EB850520
:100930000C68AC4020431468206311E01068C06A62
:100940000C790D3C04EB84051F24AC40A0430D79C9
:100950000D3D05EB85050C68AC4020431468E06252
:1009600008680A2812D31068C0680C780A3C04EBA7
:1009700044050724AC40A0430D780A3D05EB45052E
:100980008C68AC4020431468E0600FE01068006998
:100990000C7804EB44050724AC40A0430D7805EB2C
:1009A00045058C68AC402043146820610868102815
:1009B00002D00868112827D1174C1068A0421ED118
:1009C0001068806800F40000F0B91068806840F496
:1009D00000001468A0600868102815D10F4800684E
:1009E0000F4CB0FBF4F000EB80004000009002E000
:1009F0000098401E009000980028F9D104E0906A09
:100A000040F020009062012300BF002082F8240003
:100A100000BF184661E70000002401407800002074
:100A200040420F0070477047704700002DE9F041C9
:100A30000446002700250026A84614B90120BDE879
:100A4000F081A06810B1207D00B100BFA06A30B96C
:100A50000020E06284F82400204600F089F8204657
:100A6000FFF7BFFC0746A06A00F01000002873D112
:100A7000002F71D1A06A20F4885040F00200A062DB
:100A8000E16960680843217B40EA41000643A068B1
:100A9000B0F5807F02D0A068012802D14FF48070A9
:100AA00000E000200543207D012811D1207B38B9CA
:100AB000A069401E4FF4006141EA4030054307E061
:100AC000A06A40F02000A062E06A40F00100E0620D
:100AD0002068406820F46940284321684860206805
:100AE000806821490840304321688860A068B0F5DB
:100AF000807F02D0A068012802D14FF4807000E00E
:100B00000020B0F5807F03D1208A401E4FEA0058B4
:100B10002068C06A20F4700040EA08002168C862BA
:100B20002068806811490840B04208D10020E06286
:100B3000A06A20F0020040F00100A06211E0A06A6B
:100B400020F0020040F01000A062E06A40F00100D6
:100B5000E062012705E0FFE7A06A40F01000A06214
:100B6000012738466BE70000FDF7E1FFFE0E1FFF8F
:100B700010B586B0044600200290039004900590C2
:100B80002149206888423DD100BF2048806940F457
:100B900000701E4988610846806900F40070019069
:100BA00000BF00BF00BF0846806940F004008861B4
:100BB0000846806900F00400019000BF00BF0320D8
:100BC0000290039002A9124801F062F811481249FC
:100BD00008600020486000210F4881608021C160CA
:100BE0008900016189004161202181610021C16189
:100BF00000F0A6FF08B1FFF7D6FD00BF064820624F
:100C0000446200BF06B010BD002401400010024045
:100C10000008014008000240AC0000202DE9F0412E
:100C200004460D461646002757492068884203D0DF
:100C300056492068884205D15348001D006800F4D9
:100C4000702000E0002000287ED100BF94F824002E
:100C5000012802D10220BDE8F081012084F824009F
:100C600000BF2046FFF72AFC0746002F6DD1A06A7F
:100C700040F60161884340F48070A06243492068D7
:100C8000884209D14048001D006800F4702008B96E
:100C9000012002E0002000E0012078B1A06A20F4E9
:100CA0008010A0622068406800F4806000B3A06AF1
:100CB00020F4005040F48050A06219E0A06A40F493
:100CC0008010A06230492068884203D02F492068F4
:100CD000884205D12C48001D006800F4806000E0C7
:100CE000002028B1A06A20F4005040F48050A06297
:100CF000A06A00F4805020B1E06A20F00600E062B3
:100D000001E00020E06200BF002084F8240000BF62
:100D10001F48216A88621F48216AC8621E48216AEA
:100D200008636FF00200216808602068806840F462
:100D3000807021688860226802F14C0133462A469F
:100D4000206A00F043FF01E01AE014E020688068A8
:100D500000F46020B0F5602F06D12068806840F470
:100D6000A000216888600CE02068806840F4801052
:100D70002168886005E000BF002084F8240000E0BE
:100D80000127384667E700000024014000280140A1
:100D90003F040008AF0400089104000810B50246A3
:100DA00092F82030012B01D0022B06D11068406947
:100DB000084314686061002010BD506A40F4802030
:100DC00050620120F8E7F0B504460D461E4694F83F
:100DD000207020688368A86800B900E000BF012F78
:100DE00001D0022F7CD103F0806030B903F00060A5
:100DF00018B903F08050002873D0C3F301610229B1
:100E000005D9606A40F4000060620120F0BD012055
:100E100088403060A86860B9B5F800C0E86840EA6A
:100E20004C5C206800F5C07000EB0110C0F800C0F9
:100E30000FE0D5E901C040EACC00D5F80CC040EA8B
:100E40000C00D4F800C00CF5C07C0CEB011CCCF8F5
:100E50000000D5F810C0206800F5C07000EB01104C
:100E6000C0F804C0287D01280ED1206800F5C070AC
:100E700000EB0110406840F4807C206800F5C070F1
:100E800000EB0110C0F804C0D079000692F806C04B
:100E900040EA0C4092F805C040EA0C2C10794CEA6C
:100EA000000C206800F5C07000EB0110C0F80CC009
:100EB000D078000692F802C040EA0C4092F801C0D7
:100EC00040EA0C2092F800C040EA0C00D4F800C0C0
:100ED0000CF5C07C0CEB011CCCF80800206801E08C
:100EE00016E00FE000F5C07000EB0110006840F064
:100EF000010C206800F5C07000EB0110C0F800C0C4
:100F0000002083E7606A40F40010606201207DE702
:100F1000606A40F480206062012077E7F0B5044603
:100F20000A46216894F82050012D01D0022D7ED16F
:100F3000424901F50071086840F001000860086846
:100F400020F47C5008600868566A40EA0620086071
:100F5000107D00F01F06012000FA06F3C8699843CF
:100F6000C861A1F50071D069C8B9D1F80C029843E5
:100F7000C1F80C02908880B2968940EA064601F5D5
:100F80001070576940F83760108880B2168940EABF
:100F9000064601F51070576900EBC7004660D0693E
:100FA000012819D1D1F80C021843C1F80C0290881D
:100FB00080B2168840EA064601F51070576940F87D
:100FC0003760908980B2168940EA064601F51070B4
:100FD000576900EBC7004660906928B9D1F8040250
:100FE0009843C1F8040204E0D1F804021843C1F8A0
:100FF0000402106928B9D1F814029843C1F8140208
:1010000004E0D1F814021843C1F81402106A012850
:1010100004D1D1F81C021843C1F81C02D1F8000217
:1010200020F00100C1F800020020F0BDFFE7606A77
:1010300040F4802060620120F7E700000064004077
:10104000704770B5044694F82050012D01D0022D50
:101050007DD151B92068C06800F0030080B9606A92
:1010600040F400106062012070BD2068006900F04B
:10107000030028B9606A40F4001060620120F3E7C1
:10108000206800F5D87000EB0110006800F0040043
:101090009060906840B9206800F5D87000EB0110AE
:1010A0000068400D106007E0206800F5D87000EB84
:1010B00001100068C0085060206800F5D87000EB8F
:1010C0000110006800F00200D060206800F5D870C0
:1010D00000EB0110406800F00F001061206800F57F
:1010E000D87000EB0110406800F47F40000A906166
:1010F000206800F5D87000EB01104068000C5061CA
:10110000206800F5D87000EB011080681870206826
:1011100000F5D87000EB0110806800F47F40000AF1
:101120005870206800F5D87000EB0110806800F45A
:101130007F00000C9870206800F5D87000EB01105B
:101140008068000ED870206800F5D87000E02FE0AD
:1011500000EB0110C0681871206800F5D87000EB32
:101160000110C06800F47F40000A5871206800F543
:10117000D87000EB0110C06800F47F00000C98717B
:10118000206800F5D87000EB0110C068000ED8711F
:1011900031B92068C06840F020002668F06005E0A2
:1011A0002068006940F020002668306100205BE77D
:1011B000606A40F480206062012055E72DE9F05F0D
:1011C00004460025206846692068D0F8049020680D
:1011D00087682068D0F80CA02068D0F810B020688C
:1011E000D0F8188006F00100002855D007F0010063
:1011F000C0B101202168886007F0020018B12046C4
:1012000000F0CBFA0EE007F0040010B145F40065E1
:1012100008E007F0080010B145F4805502E02046D0
:1012200000F0BAFA07F48070C8B14FF480702168FA
:10123000886007F4007018B1204600F0B0FA0EE0A4
:1012400007F4806010B145F4005508E007F4006031
:1012500010B145F4804502E0204600F09FFA07F403
:101260008030C8B14FF480302168886007F40030C6
:1012700018B1204600F095FA0EE007F4802010B176
:1012800045F4004508E007F4002010B145F480352E
:1012900002E0204600F084FA06F0080038B10AF0B7
:1012A000100020B145F4007510202168C86006F0D8
:1012B000040040B10AF0080028B108202168C86085
:1012C000204600F027FA06F0020038B12068C06816
:1012D00000F0030010B1204600F01EFA06F04000B6
:1012E00038B10BF0100020B145F480651020216862
:1012F000086106F0200040B10BF0080028B108207A
:1013000021680861204600F015FA06F0100038B197
:101310002068006900F0030010B1204600F00BFACD
:1013200006F4003040B109F0100028B11020216807
:101330004860204600F000FA06F4803040B109F021
:10134000080028B1082021684860204600F02AFAE9
:1013500006F4004088B309F0040078B306F4807006
:1013600020B108F0010008B145F0010506F4007055
:1013700020B108F0020008B145F0020506F48060D3
:1013800020B108F0040008B145F0040506F400603F
:10139000A0B108F0700088B108F07000402817D0A4
:1013A00006DC10280BD020280CD0302819D10CE0F6
:1013B000502810D0602814D110E01DE019E045F04D
:1013C00008050FE045F010050CE045F0200509E0A8
:1013D00045F0400506E045F0800503E045F48075E2
:1013E00000E000BF00BF2068806920F07000216825
:1013F00088610420216848602DB1606A28436062DA
:101400002046FFF71DFEBDE8F09F70B504460CB9FD
:10141000012070BD94F8200010B9204600F0B0F80B
:101420002068006840F001002168086000F0C0FDFD
:1014300005460DE000F0BCFD401B0A2808D9606A93
:1014400040F400306062052084F820000120E0E7CD
:101450002068406800F001000028EBD02068006898
:1014600020F002002168086000F0A2FD05460DE0B2
:1014700000F09EFD401B0A2808D9606A40F4003045
:101480006062052084F820000120C2E720684068DF
:1014900000F002000028EBD1207E012806D1206850
:1014A000006840F080002168086005E0206800685E
:1014B00020F0800021680860607E012806D1206845
:1014C000006840F040002168086005E0206800687E
:1014D00020F0400021680860A07E012806D1206825
:1014E000006840F020002168086005E0206800687E
:1014F00020F0200021680860E07E012806D12068E5
:10150000006820F010002168086005E0206800688D
:1015100040F0100021680860207F012806D1206873
:10152000006840F008002168086005E02068006855
:1015300020F0080021680860607F012806D120683B
:10154000006840F004002168086005E02068006839
:1015500020F0040021680860D4E9020108432169F1
:101560000843616908436168491E08432168C861EE
:1015700000206062012084F82000002049E700007C
:1015800010B586B0044600200290039004900590A8
:101590005A492068884254D159480068401C58492B
:1015A00008600846006801280DD100BF5548C06991
:1015B00040F000705349C8610846C06900F00070EF
:1015C000019000BF00BF00BF4E48806940F0080096
:1015D0004C4988610846806900F00800019000BF0E
:1015E00000BF8815029000200390049002A946488D
:1015F00000F04EFB4FF40070029002200390032095
:10160000059002A9404800F043FB00BF3F494868ED
:1016100020F4C04040F0E06040F48040486000BFEB
:1016200000221146132000F049FD132000F036FD82
:1016300000221146142000F041FD142000F02EFD80
:101640005AE033492068884256D100BF2D48C0690E
:1016500040F080602B49C8610846C06900F0806096
:10166000019000BF00BF26480068401C2449086064
:101670000846006801280DD100BF2248C06940F02B
:1016800000702049C8610846C06900F000700190F0
:1016900000BF00BF00BF1B48806940F00800194927
:1016A00088610846806900F00800019000BF00BF13
:1016B0008814029000200390049002A9124800F0C0
:1016C000E7FA4FF4005002900220039003200590A7
:1016D00002A90D4800F0DCFA002211463F2000F07C
:1016E000EDFC3F2000F0DAFC00221146402000F023
:1016F000E5FC402000F0D2FC06B010BD00640040C4
:101700006800002000100240000C01400000014071
:10171000006800407047000010B50446034B044ABF
:1017200000212046FFF78DFC10BD00004200002084
:101730009406002070477047704770B5044694F8CF
:101740002000012822D1022084F8200020680068AF
:1017500020F001002168086000F02AFC05460DE039
:1017600000F026FC401B0A2808D9606A40F40030CB
:101770006062052084F82000012070BD2068406868
:1017800000F001000028EBD16062F6E7606A40F4E7
:10179000002060620120F0E7704770477047704793
:1017A000704770477047000070B50446E06B0568ED
:1017B0002068066894F840100420884028400028DB
:1017C00075D006F004000028FAD02068006800F008
:1017D000200028B92068006820F004002168086013
:1017E000D5492068884254D9D3497839206888423D
:1017F00001D1042049E0D04964392068884201D1F0
:10180000402042E0CC4950392068884201D100157F
:101810003BE0C9493C392068884202D14FF48040FE
:1018200033E0C54928392068884202D14FF480202E
:101830002BE0C14914392068884202D14FF480005E
:1018400023E0BD492068884201D1C0041DE0BB49A6
:101850002068884201D1042017E0B849143120687B
:10186000884201D1402010E0B449283120688842E4
:1018700001D1001509E0B1493C312068884202D10C
:101880004FF4804001E04FF48020AC49091F08600C
:1018900054E0A94978392068884201D104204AE0FF
:1018A000A54964392068884202D1402043E04CE0D9
:1018B000A14950392068884201D100153BE09E497A
:1018C0003C392068884202D14FF4804033E09A4985
:1018D00028392068884202D14FF480202BE09649B5
:1018E00014392068884202D14FF4800023E09249E5
:1018F0002068884201D1C0041DE0904920688842D8
:1019000001D1042017E08D4914312068884201D1AB
:10191000402010E0894928312068884201D1001513
:1019200009E086493C312068884202D14FF480406A
:1019300001E04FF48020804980394860E06A002847
:1019400002D02046E16A8847F4E094F84010022073
:1019500088402840002871D006F002000028FAD004
:101960002068006800F0200040B92068006820F07E
:101970000A0021680860012084F821006E4920686F
:10198000884254D96C4978392068884201D10220B4
:1019900049E0694964392068884201D1202042E049
:1019A000654950392068884201D140153BE06249C1
:1019B0003C392068884202D14FF4005033E05E4940
:1019C00028392068884202D14FF400302BE05A4970
:1019D00014392068884202D14FF4001023E05649A0
:1019E0002068884201D180041DE054492068884263
:1019F00001D1022017E0514914312068884201D1F9
:101A0000202010E04D4928312068884201D140153E
:101A100009E04A493C312068884202D14FF4005025
:101A200001E04FF400304549091F086054E0424985
:101A300078392068884202D102204AE057E03E49C6
:101A400064392068884201D1202042E03A49503967
:101A50002068884201D140153BE037493C39206875
:101A6000884202D14FF4005033E0334928392068CE
:101A7000884202D14FF400302BE02F4914392068FE
:101A8000884202D14FF4001023E02B49206888429D
:101A900001D180041DE029492068884201D102203B
:101AA00017E0264914312068884201D1202010E037
:101AB000224928312068884201D1401509E01F4998
:101AC0003C312068884202D14FF4005001E04FF4CD
:101AD000003019498039486000BF002084F8200098
:101AE00000BFA06A30B32046A16A884722E094F87C
:101AF0004010082088402840E0B106F00800C8B136
:101B00002068006820F00E002168086094F84010FA
:101B100001208840E16B48600120A06384F8210027
:101B200000BF002084F8200000BF206B10B12046C9
:101B3000216B884770BD000080000240080402400D
:101B40000146002209B9012070471E4B08689842DF
:101B50000BD21D4B0868C01A1423B0FBF3F08000B1
:101B6000086419480838C8630AE0164B0868C01AA8
:101B70001423B0FBF3F08000086412480838C863EF
:101B8000022081F821000868026843F6F070824361
:101B9000D1E901031843CB6818430B6918434B691B
:101BA00018438B691843CB691843024308680260E5
:101BB00000208863012081F82100002081F82000A6
:101BC00000BFC1E708040240080002402DE9F041CF
:101BD00004460D4616461F464FF0000800BF94F815
:101BE0002000012802D10220BDE8F081012084F804
:101BF000200000BF94F8210001282CD1022084F895
:101C000021000020A0632068006820F00100216806
:101C100008603B46324629462046FEF7ADFDE06AA5
:101C200030B12068006840F00E00216808600BE0C9
:101C30002068006820F004002168086020680068BF
:101C400040F00A00216808602068006840F0010048
:101C50002168086006E000BF002084F8200000BF73
:101C60004FF002084046BFE770B5044600F0A0F907
:101C700006462546681C10B104480078054400BF9C
:101C800000F096F9801BA842FAD370BD74000020C2
:101C90002DE9F8470346002294466EE14FF0010813
:101CA00008FA02F4D1F8008008EA0400A0427DD1CD
:101CB000DFF8DCA2D1F80480A8EB0A09D0453AD0BD
:101CC00014DCB8F1030F50D009DCB8F1000F31D0AB
:101CD000B8F1010F1CD0B8F1020F49D120E0B8F1E2
:101CE000110F18D0B8F1120F42D11EE0B9F5881FBC
:101CF00025D006DCB9F5803F20D0B9F5801F37D15B
:101D00001AE0B9F5001F18D0B9F5041F30D117E05B
:101D1000D1F80CC02DE0D1F80C8008F1040C28E0BB
:101D2000D1F80C8008F1080C23E0D1F80C8008F100
:101D30000C0C1EE000BF00BF00BF00BF00BF00BF13
:101D4000D1F80880B8F1000F02D14FF0040C0BE07D
:101D5000D1F80880B8F1010F03D14FF0080C1C61D5
:101D600002E04FF0080C5C6103E04FF0000C00E073
:101D700000BF00BFFF2801D8984601E003F1040826
:101D80004646FF2802D84FEA820803E0A2F108087D
:101D90004FEA88084746D6F800804FF00F0909FA45
:101DA00007F928EA09080CFA07F900E088E048EA90
:101DB0000908C6F80080D1F8048008F08058B8F10E
:101DC000805F7DD100BFDFF8CC81D8F8188048F063
:101DD0000108DFF8C091C9F81880C846D8F8188003
:101DE00008F00108CDF8008000BF00BF4FEAB93805
:101DF0004FEA920958F829504FEA82784FEA187949
:101E00004FF00F0808FA09F825EA0805DFF888817D
:101E1000434502D14FF0000816E0DFF880814345CA
:101E200002D14FF001080FE0DFF87481434502D181
:101E30004FF0020808E0DFF86C81434502D14FF013
:101E4000030801E04FF004084FEA82794FEA19795C
:101E500008FA09F848EA0505DFF84C814FEA9209CB
:101E600048F82950D1F8048008F48038B8F5803F4C
:101E70000AD1DFF83881D8F8008048EA0008DFF896
:101E80002C91C9F8008009E0DFF82081D8F80080A3
:101E900028EA0008DFF81491C9F80080D1F804801E
:101EA00008F40038B8F5003F10D1DFF8008108F1E0
:101EB0000408D8F8008048EA0008DFF8F09000E055
:101EC0005AE009F10409C9F800800DE0DFF8DC8070
:101ED00008F10408D8F8008028EA0008DFF8CC9060
:101EE00009F10409C9F80080D1F8048008F48018C9
:101EF000B8F5801F0ED1DFF8B48008F10808D8F8D3
:101F0000008048EA0008DFF8A49009F10809C9F840
:101F100000800DE0DFF8948008F10808D8F8008010
:101F200028EA0008DFF8849009F10809C9F8008060
:101F3000D1F8048008F40018B8F5001F0ED1DFF8BE
:101F40006C8008F10C08D8F8008048EA0008DFF837
:101F50005C9009F10C09C9F800800DE0DFF84C80B5
:101F600008F10C08D8F8008028EA0008DFF83C9057
:101F700009F10C09C9F80080521CD1F8008028FA38
:101F800002F8B8F1000F7FF489AEBDE8F8870000D1
:101F9000000011100010024000080140000C014038
:101FA00000100140001401400800014000040140FD
:101FB00001480068704700006C000020034800687A
:101FC0000349097808440149086070476C00002003
:101FD0007400002010B50848006840F01000064961
:101FE0000860032000F0A8F80F2000F007F800F0C8
:101FF0002BF8002010BD00000020024070B5044600
:102000000E4800784FF47A71B1FBF0F00C49096882
:10201000B1FBF0F5284600F0E3FE08B1012070BDE9
:10202000102C07D200222146501E00F047F8054828
:10203000046001E00120F2E70020F0E774000020D6
:10204000780000207000002008B500BF11488069AA
:1020500040F001000F4988610846806900F00100E6
:10206000009000BF00BF00BF0846C06940F080502C
:10207000C8610846C06900F08050009000BF00BFF2
:1020800000BF0549486820F0E06040F000704860FB
:1020900000BF08BD00100240000001400146084694
:1020A000002809DB00F01F0301229A4043099B002E
:1020B00003F1E023C3F8002100BF70472DE9F05F72
:1020C00080460D461646002701F0F2FF07463946C6
:1020D0002A46334601F00700C0F1070ABAF1040F9F
:1020E00002D94FF0040A01E0C0F1070AD14600F11D
:1020F000040ABAF1070F02D24FF0000A01E0A0F182
:10210000030AD4464FF0010A0AFA09FAAAF1010AB1
:102110000AEA020A0AFA0CFA4FF0010B0BFA0CFB5E
:10212000ABF1010B0BEA030B4AEA0B0421464046D4
:1021300001F0C6FFBDE8F09F00BF00F00702064BAC
:1021400019684FF6FF031940044B0B4343EA022181
:10215000014B196000BF70470CED00E00000FA056C
:102160002DE9F04F89B080467CA1D1E90023D1E967
:102170000201CDE90523CDE907017CA3D3E90102E2
:102180001968DB6802AC0DC401914FF0000900250D
:102190000026AB46AA460027002400200090B8F194
:1021A000040F59D006DCB8F1010F76D0B8F1020F58
:1021B00074D1C0E0B8F1080F72D0B8F1100FF7D1A8
:1021C0006E484468006800F08070002843D005A87D
:1021D000C4F38341465C04F4803058B36748C06A56
:1021E00000F00F0001A911F800906448C06A00F4E3
:1021F0008030A0B16148C06AC0F30310471C5F483B
:10220000C06AC0F3032000F1020B5D48B0FBF7F099
:1022100000FB0BF0B0FBF9F000FB06F504E05848BA
:10222000B0FBF9F000FB06F59DF82100B04204D1A7
:102230006D0802E0534806FB00F55048406800F482
:102240008000B0F5800F01D1009504E06800032103
:10225000B0FBF1F000907BE04848C06A00F4003029
:1022600018B900F075FA009016E04448006800F0D4
:10227000805088B14148C06AC0F30310471C3F48F2
:10228000C06AC0F3033000F1020A3D48B0FBF7F02A
:1022900000FB0AF0400000905AE022E057E0FFE720
:1022A0003648C06A00F4802018B900F051FA009056
:1022B00016E03248006800F0805088B12F48C06AAC
:1022C000C0F30310471C2D48C06AC0F3033000F16F
:1022D000020A2B48B0FBF7F000FB0AF04000009028
:1022E00036E02648046A04F44070B0F5807F06D1D9
:1022F00004F0020018B14FF4004000901AE004F41A
:102300004070B0F5007F08D11C48406A00F0020020
:1023100018B149F6404000900CE004F44070B0F56C
:10232000407F07D11548006800F4003010B14FF22B
:10233000244000900CE000F0FBF910494968C1F31B
:102340008131491C4900B0FBF1F0009000E000BF72
:1023500000BF009809B0BDE8F08F00000000040540
:102360000607080900000000000D00000102030438
:1023700005060708090A0B0C0D0E0F10001002408D
:1023800000127A0000093D002DE9F84304460026BA
:1023900000250027207800F0010000286ED0A84614
:1023A0007948C06900F0805078B900BF7648C069AC
:1023B00040F080507449C8610846C06900F0805000
:1023C000009000BF00BF4FF001087048006800F4A3
:1023D0008070B8B96D48006840F480706B4908603F
:1023E000FFF7E6FD064607E0FFF7E2FD801B6428E5
:1023F00002D90320BDE8F8836448006800F48070C7
:102400000028F1D06048006A00F440752DB3A08820
:1024100000F44070A84220D05B48006A20F4407568
:1024200001205B490860002008605748056205F0FC
:10243000010090B1FFF7BCFD064608E0FFF7B8FDCC
:10244000801B41F28831884201D90320D2E74E48EF
:10245000006A00F002000028F0D04B48006A20F427
:1024600040706168084348490862B8F1010F04D11F
:102470000846C06920F08050C86100BF207800F095
:102480000200022807D14048406820F44040A1687B
:1024900008433D494860207800F00400042807D133
:1024A0003948C06A20F40030E16808433649C86200
:1024B000207800F00800082807D13348C06A20F4CB
:1024C0008020216908433049C8622F48C06A00F45F
:1024D000003020B92C48C06A00F4802000B10127E8
:1024E000012F41D12848006800F0805090BB264859
:1024F000006800F0806040B12348C06A00F0F0013D
:10250000A069814201D0012074E71F48C06A20F011
:10251000F000A16908431C49C8620846C06A20F45B
:102520007040616908431849C86201201949086769
:10253000FFF73EFD064606E0FFF73AFD801B6428E4
:1025400001D9032056E71048006800F00050002829
:10255000F2D009E0FFE70C48C06A00F470406169FE
:10256000884201D0012045E7207800F010001028B3
:1025700007D10548406820F48000E169084302491A
:102580004860002036E70000001002400070004064
:10259000400442420000424270B504460D460CB968
:1025A000012070BD5A48006800F00700A8420ED212
:1025B0005748006820F0070028435549086008463E
:1025C000006800F00700A84201D00120E9E7207868
:1025D00000F0020002281DD1207800F00400042839
:1025E00005D14C48406840F4E0604A494860207892
:1025F00000F00800082805D14648406840F46050C3
:10260000444948604348406820F0F000A16808430E
:1026100040494860207800F0010078B360680128E4
:1026200006D13C48006800F4003090B90120B8E7BA
:102630006068022806D13748006800F0007040B991
:102640000120AEE73348006800F0020008B901201D
:10265000A7E73048406820F00300616808432D492F
:102660004860FFF7A5FC064609E0FFF7A1FC801BC8
:1026700041F28831884202D9032092E707E02548D9
:10268000406800F00C006168B0EB810FEDD120488C
:10269000006800F00700A8420ED91D48006820F02D
:1026A000070028431A4908600846006800F0070040
:1026B000A84201D0012074E7207800F0040004282B
:1026C00007D11448406820F4E060E16808431149EC
:1026D0004860207800F00800082808D10D484068BC
:1026E00020F46050216940EAC1000A49486000F0C6
:1026F0002FF808494968C1F30311074A515CC840E3
:102700000649086006480068FFF778FC002048E7A3
:1027100000200240001002407A4D0008780000209E
:102720007000002001480068704700007800002019
:1027300000B5FFF7F7FF04494968C1F3C221034A16
:10274000515CC84000BD0000001002408A4D0008E6
:102750002DE9F04F8BB03CA2D2E901311068D2686C
:10276000CDE908310A9207903BA3D3E90020D3E9D1
:10277000021304AC0BC403924FF00009CB46CA46C7
:10278000002400200290019000903748D0F8049077
:1027900009F00C0000284FD0042802D008284AD1A4
:1027A00002E0324802904AE007A8C9F38341445C42
:1027B00009F48030C0B32C48C06A00F00F0003A9B0
:1027C00011F800B02848C06A00F4803008B32648E9
:1027D000C06AC0F30310401C01902348C06AC0F3D4
:1027E0000320801C00900198A0FB0B5006461F4957
:1027F0000098A1FB00210023A2FB047C01FB04C183
:1028000002FB03112A4633463846FDF70FFD824688
:1028100003E016486043B0FBFBFA9DF82900A04294
:1028200006D14FEA5A0A03E0FFE7114804FB00FA19
:10283000CDF808A003E000BF0C48029000BF00BF25
:1028400002980BB0BDE8F08F0000040506070809E8
:1028500000000000000D0000010203040506070847
:10286000090A0B0C0D0E0F100010024000127A0026
:1028700000093D00F8B504460CB90120F8BD2078E8
:1028800000F00100002878D0FD48406800F00C00FE
:1028900004280CD0FA48406800F00C00082811D138
:1028A000F748406800F48030B0F5803F0AD1F44822
:1028B000006800F4003000285FD0A06800285CD1D8
:1028C0000120DBE700BFA068B0F5803F06D1EC48EF
:1028D000006840F48030EA49086028E0A06858B9F0
:1028E000E748006820F48030E54908600846006841
:1028F00020F4802008601AE0A068B0F5A02F0BD16A
:10290000DF48006840F48020DD4908600846006820
:1029100040F4803008600AE0D948006820F4803034
:10292000D74908600846006820F48020086000BF8E
:10293000A06888B1FFF73CFB054606E0FFF738FBCF
:10294000401B642801D9032098E7CD48006800F4B3
:1029500000300028F2D010E0FFF72AFB054606E021
:10296000FFF726FB401B642801D9032086E7C448F3
:10297000006800F400300028F2D1207800F0020056
:10298000022857D1BE48406800F00C0050B1BC4846
:10299000406800F00C00082818D1B948406800F4DD
:1029A000803098B9B648006800F0020020B1606934
:1029B000012801D0012061E7B148006820F0F8004B
:1029C000A16940EAC100AE49086033E06069E8B13E
:1029D0000120AC490860FFF7EBFA054606E0FFF777
:1029E000E7FA401B022801D9032047E7A448006802
:1029F00000F002000028F2D0A148006820F0F800A2
:102A0000A16940EAC1009E49086013E000209D4989
:102A10000860FFF7CDFA054606E0FFF7C9FA401B4C
:102A2000022801D9032029E79548006800F0020038
:102A30000028F2D1207800F0080008282DD1E069A4
:102A4000B8B1012090490860FFF7B2FA054606E0E8
:102A5000FFF7AEFA401B022801D903200EE7884891
:102A6000406A00F002000028F2D0012001F000F8D6
:102A700013E0002084490860FFF79AFA054606E053
:102A8000FFF796FA401B022801D90320F6E67C489E
:102A9000406A00F002000028F2D1207800F0040023
:102AA000042873D100277648C06900F0805070B9BF
:102AB00000BF7348C06940F080507149C861084642
:102AC000C06900F08050009000BF00BF01276F4830
:102AD000006800F48070B0B96C48006840F4807001
:102AE0006A490860FFF764FA054606E0FFF760FAF6
:102AF000401B642801D90320C0E66448006800F444
:102B000080700028F2D000BF2069012806D15C48FF
:102B1000006A40F001005A49086227E0206958B96C
:102B20005748006A20F00100554908620846006ACB
:102B300020F00400086219E0206905280BD15048F4
:102B4000006A40F004004E4908620846006A40F0FE
:102B5000010008620AE04A48006A20F00100484982
:102B600008620846006A20F00400086200BF20697D
:102B7000A0B1FFF71DFA054609E0FFF719FA401B5F
:102B800041F28831884202D9032077E622E03C48AE
:102B9000006A00F002000028EFD012E0FFF708FA08
:102BA000054608E0FFF704FA401B41F288318842ED
:102BB00001D9032062E63248006A00F002000028D2
:102BC000F0D1012F05D12E48C06920F080502C494A
:102BD000C86100BFE06AA0B32948406800F48030B3
:102BE000B0F5803F0ED12648406800F00C00082860
:102BF00008D12348C06A00F48030B0F5803F01D18D
:102C000001203BE6E06A022850D11D48006800F030
:102C1000805040B11A48C06A00F0F001606B8142F8
:102C200001D001202AE6002016498866FFF7C0F986
:102C3000054607E0FFF7BCF9401B642802D90320D2
:102C40001CE64DE00E48006800F000600028F1D15D
:102C50000B48C06A20F0F000616B08430849C86265
:102C60000846C06A20F47060216B08430449C862BA
:102C7000012004498866FFF79BF905460FE0000034
:102C800000100240000042428004424200700040B6
:102C9000FFF78EF9401B642801D90320EEE54E486A
:102CA000006800F000600028F2D019E04A48C06ACD
:102CB00020F480304849C862002048498866FFF700
:102CC00077F9054606E0FFF773F9401B642801D940
:102CD0000320D3E54048006800F000600028F2D1EE
:102CE000206AE0B33C48406800F00C0008285ED041
:102CF000206A022846D1002038490866FFF758F9B3
:102D0000054606E0FFF754F9401B022801D90320CD
:102D1000B4E53148006800F000700028F2D1606A24
:102D2000B0F5803F0DD12C48C06A616808432A493C
:102D3000C8620846C06A20F00F00E16808432649CF
:102D4000C862D4E9090108432349496821F4741190
:102D500008432149486001202049086600E038E026
:102D6000FFF726F9054606E0FFF722F9401B022887
:102D700001D9032082E51848006800F0007000289F
:102D8000F2D026E0002015490866FFF711F9054644
:102D900006E0FFF70DF9401B022801D903206DE57D
:102DA0000D48006800F000700028F2D111E0206AA0
:102DB000012800D162E50848466806F48031606A5F
:102DC000814204D106F47011A06A814201D0012031
:102DD00054E5002052E5000000100240000042428D
:102DE00070B504462546681EB0F1807F01D30120EE
:102DF0000FE0681E4FF0E02148610F214FF0FF30D7
:102E000001F05EF900204FF0E021886107200861A1
:102E1000002070BD7047704710B50346002200BF08
:102E200093F83C00012801D1022010BD012083F855
:102E30003C0000BF22F0FF00CC6840EA040222F40C
:102E400040708C6840EA040222F480604C6840EADA
:102E5000040222F400600C6840EA040222F480506C
:102E60000C6940EA040222F400504C6940EA040272
:102E700022F48040CC6940EA04021868426400BF32
:102E8000002083F83C0000BF00BFCEE730B502460B
:102E90000B4600BF92F83C00012801D1022030BD52
:102EA000012082F83C0000BF022082F83D0010683B
:102EB00044681068816824F070041868044310683E
:102EC0004460124D1068A8420FD01068B0F1804FD6
:102ED0000BD00F4D1068A84207D00E4D1068A842C5
:102EE00003D00D4D1068A84205D121F0800158682B
:102EF000014310688160012082F83D0000BF00207E
:102F000082F83C0000BF00BFC9E70000002C014070
:102F10000004004000080040000C004010B50446CA
:102F20000CB9012010BD94F83D0028B9002084F8A8
:102F30003C00204600F026F8022084F83D00211DC8
:102F4000206800F0E5FE012084F8460000BF84F808
:102F50003E0001213F2001554020015541200155EF
:102F600000BF00BF012084F84200432001554420E7
:102F700001554520015500BF012084F83D00002087
:102F8000D0E7000038B504461B492068884232D19A
:102F900000BF1A48806940F40060184988610846FB
:102FA000806900F40060009000BF00BF144815491C
:102FB0000860002048600021124881608021C160C3
:102FC0004900016189004161202181610021C161C5
:102FD000FEF7B6FD08B1FDF7E6FB00BF09496162E7
:102FE0000846446200BF002211461920FFF766F828
:102FF0001920FFF753F838BD002C014000100240A3
:103000001C00024088010020014691F83D00012883
:1030100001D001207047022081F83D000868C06897
:1030200040F001000B68D860144B086898420FD03C
:103030000868B0F1804F0BD0114B0868984207D058
:10304000104B0868984203D00F4B086898420CD187
:103050000868806800F00702062A0CD0086800683B
:1030600040F001000B68186005E00868006840F057
:1030700001000B6818600020CCE70000002C014024
:103080000004004000080040000C00402DE9F04121
:1030900004460D4600BF94F83C00012802D10220EE
:1030A000BDE8F081012084F83C0000BF022084F8D4
:1030B0003D002068866826F0770626F47F46206863
:1030C00086602868502833D00CDC202850D004DCDF
:1030D00000284BD0102851D149E0302849D0402851
:1030E0004CD139E060282DD0702807D0B0F5805F32
:1030F00003D0B0F5005F41D10DE040E0D5E9021307
:103100006A68206800F0DAFE2068866846F0770674
:103110002068866033E0D5E902136A68206800F011
:10312000CDFE2068806840F480402168886026E0F9
:10313000EA686968206800F091FF5021206800F07B
:10314000C8FE1CE0EA686968206800F09AFF602108
:10315000206800F0BEFE12E0EA686968206800F0AE
:103160007DFF4021206800F0B4FE08E000BF00BFF2
:1031700000BF2968206800F0ACFE00E000BF00BF7F
:10318000012084F83D0000BF002084F83C0000BF0F
:1031900000BF85E77047704710B504462068006996
:1031A000C0F34000D8B12068C068C0F34000B0B19F
:1031B0006FF0020021680861012020772068806993
:1031C00000F0030018B12046FFF7E5FF05E02046B8
:1031D00000F0DAF8204600F08AF900202077206815
:1031E0000069C0F38000D8B12068C068C0F38000D7
:1031F000B0B16FF0040021680861022020772068D8
:10320000806900F4407018B12046FFF7C4FF05E064
:10321000204600F0B9F8204600F069F90020207738
:1032200020680069C0F3C000D8B12068C068C0F34E
:10323000C000B0B16FF00800216808610420207759
:103240002068C06900F0030018B12046FFF7A3FF13
:1032500005E0204600F098F8204600F048F90020EC
:10326000207720680069C0F30010D8B12068C068DA
:10327000C0F30010B0B16FF01000216808610820A1
:1032800020772068C06900F4407018B12046FFF72D
:1032900082FF05E0204600F077F8204600F027F98D
:1032A000002020772068006900F0010058B12068F4
:1032B000C06800F0010030B16FF0010021680861C2
:1032C000204600F01FFA20680069C0F3C01058B112
:1032D0002068C068C0F3C01030B16FF08000216872
:1032E00008612046FFF796FD20680069C0F3801052
:1032F00058B12068C068C0F3801030B16FF0400052
:1033000021680861204600F0FEF920680069C0F3DA
:10331000401058B12068C068C0F3401030B16FF061
:103320002000216808612046FFF775FD10BD0000F0
:1033300010B586B0044600200290039004900590DA
:103340000E492068884217D100BF0D48806940F0BF
:1033500004000B4988610846806900F00400019070
:1033600000BF00BF88150290022003900320059043
:1033700002A90448FEF78CFC06B010BD002C0140E9
:103380000010024000080140704770B504460D4629
:10339000164600BF94F83C00012801D1022070BD00
:1033A000012084F83C0000BF36B1042E1BD0082E4B
:1033B00031D00C2E5ED145E02946206800F092FD08
:1033C0002068806940F00800216888612068806971
:1033D00020F0040021688861206880692969084319
:1033E0002168886147E02946206800F0ABFD20682D
:1033F000806940F40060216888612068806920F459
:1034000080602168886120688069296940EA01201C
:10341000216888612FE02946206800F0C7FD2068F8
:10342000C06940F008002168C8612068C06920F0C8
:1034300004002168C8612068C069296908432168BF
:10344000C86118E02946206800F0E4FD2068C069E2
:1034500040F400602168C8612068C06920F4806081
:103460002168C8612068C069296940EA0120216893
:10347000C86100E000BF00BF00BF002084F83C002E
:1034800000BF00BF8BE710B504460CB9012010BD8A
:1034900094F83D0028B9002084F83C00204600F054
:1034A00025F8022084F83D00211D206800F030FC42
:1034B000012084F8460000BF84F83E0001213F202F
:1034C0000155402001554120015500BF00BF01209A
:1034D00084F8420043200155442001554520015500
:1034E00000BF012084F83D000020D0E770477047FE
:1034F000704700002DE9F04104460D4616461F4670
:1035000015B994F83E000BE0042D02D13F20005D78
:1035100006E0082D02D14020005D01E04120005D61
:10352000022801D1BDE8F08115B994F83E000BE006
:10353000042D02D13F20005D06E0082D02D140207D
:10354000005D01E04120005D012817D10EB907B1EF
:10355000E8E71DB9022084F83E0011E0042D03D1F4
:1035600002213F2001550BE0082D03D1022140200C
:10357000015505E002214120015501E00120D1E77C
:1035800035B1042D1FD0082D38D00C2D6CD150E052
:103590005549606A81625549606AC1625449606AEE
:1035A0000163216801F134023B463146606AFEF74F
:1035B0000DFB08B10120B5E72068C06840F4007039
:1035C0002168C86051E04849A06A81624749A06A01
:1035D000C1624749A06A0163216801F138023B4694
:1035E0003146A06AFEF7F2FA08B101209AE7206896
:1035F000C06840F480602168C86036E03A49E06AFB
:1036000081623A49E06AC1623949E06A016321682E
:1036100001F13C023B463146E06AFEF7D7FA08B1B9
:1036200001207FE72068C06840F400602168C8601E
:103630001BE02D49206B81622C49206BC1622C4913
:10364000206B0163216801F140023B463146206B4B
:10365000FEF7BCFA08B1012064E72068C06840F4B6
:1036600080502168C86000E000BF00BF01222946E9
:10367000206800F08FFB1F492068884201D101209B
:1036800000E0002028B12068406C40F40040216830
:1036900048641849206888420FD02068B0F1804FF4
:1036A0000BD015492068884207D014492068884209
:1036B00003D01349206888420DD12068806800F04B
:1036C0000708B8F1060F0CD02068006840F0010030
:1036D0002168086005E02068006840F0010021686A
:1036E000086000201EE70000B73D00081F3E0008EC
:1036F0005F3E0008002C014000040040000800402C
:10370000000C00407047704700BFFEE70EB5002078
:103710000090019002901E481E49086081151D48C6
:10372000816001210173002101754FF46021C161A5
:10373000002018494860032116480161FDF776F919
:1037400008B1FDF730F8112000900120019003200E
:10375000029069460F48FDF7B5F808B1FDF723F868
:10376000002000900220019069460A48FDF7AAF85F
:1037700008B1FDF718F80120009003200190694678
:103780000448FDF79FF808B1FDF70DF80EBD0000E5
:10379000002401407C00002010B52648264908601E
:1037A00004204860002124488160C1604FF4C0219A
:1037B000016100214161017601214176817600217C
:1037C000C17601774177FDF720FE08B1FCF7EBFFEA
:1037D00008201A49086100208860C860022008603B
:1037E00000200875164948610120886100200861A1
:1037F00048624FF4FE5008604020486060208860B6
:103800008020C8600020C861012008620A48FDF7D6
:1038100085FB08B1FCF7C7FF0748FDF78EFF08B12D
:10382000FCF7C1FF03210448FDF7B8FA08B1FCF723
:10383000BAFF10BD00640040F00000207C060020AC
:10384000B006002010B526482649086004204860CC
:10385000002124488160C1604FF4C0210161002132
:10386000416101760121417681760021C17601779F
:103870004177FDF7CAFD08B1FCF795FF08201A490A
:10388000086100208860C860022008600020087578
:1038900016494861012088610020086148624FF4A0
:1038A000FE50086040204860602088608020C8602A
:1038B0000020C861012008620A48FDF72FFB08B10B
:1038C000FCF771FF0748FDF738FF08B1FCF76BFF05
:1038D00003210448FDF762FA08B1FCF764FF10BD4C
:1038E00000680040180100207C060020B00600207F
:1038F00008B500BF0E48406940F001000C4948611E
:103900000846406900F00100009000BF00BF00229F
:1039100011460B20FEF7D2FB0B20FEF7BFFB002267
:1039200011460C20FEF7CAFB0C20FEF7B7FB08BDC2
:103930000010024008B500BF1348806940F0200025
:10394000114988610846806900F02000009000BF9E
:1039500000BF00BF0846806940F004008861084647
:10396000806900F00400009000BF00BF00BF08465F
:10397000806940F0080088610846806900F008000E
:10398000009000BF00BF08BD0010024000B595B018
:10399000002011901290139014900F9010901C2101
:1039A00008A8FCF7BAFC20216846FCF7B6FC2B48B7
:1039B0002B490860642048600021294881604FF449
:1039C0007A71C1600021016141618161FFF7A6FA4E
:1039D00008B1FCF7E8FE4FF48050119011A920487F
:1039E000FFF754FB08B1FCF7DEFE1D48FFF74BFD67
:1039F00008B1FCF7D8FE00200F9010900FA91848CE
:103A0000FFF744FA08B1FCF7CEFE602008900020D2
:103A100009900A900B900C900D900E90002208A92E
:103A20000F48FFF7B2FC08B1FCF7BDFE0020009084
:103A300001900290039004904FF4005005900020F4
:103A4000079069460648FFF7E7F908B1FCF7ABFEB7
:103A50000348FFF76DFC15B000BD0000002C0140CD
:103A60004001002000BFFEE700BFFEE770470000F6
:103A700008B508490968C9084FF47A72B1FBF2F138
:103A80004143009100BF00BF00994A1E00920029E7
:103A9000F9D108BD78000020704700002DE9F04101
:103AA000364801683648006801F0F2F83549086088
:103AB000354801683548006800F0ECFF0446344999
:103AC00000F0B4FF05D800212E48006801F0AEF8E0
:103AD00010D92D4801682D48006800F0DBFF04462E
:103AE000002101F0A3F80DD800212648006800F05D
:103AF0009DFF07D2234801682348006800F046FE76
:103B000021490860234801681E48006801F0C0F898
:103B100004464FF07E5100F0A7FE1F49086008469A
:103B200001681E48006800F0B5FF054616480168A8
:103B30001648006800F0AEFF0646124801681848B3
:103B4000006800F0A7FF0746314600F01FFE04465C
:103B5000294600F01BFE134908601349114800680C
:103B600000F082FE0446114900F094FF10490860FD
:103B70000448006807490860BDE8F081080000209B
:103B8000180000205C000020600000205000002091
:103B90000000C842580000206400002054000020AB
:103BA0004C000020100000200000C0400000204118
:103BB000140000202DE9F0410B48006880F0004718
:103BC0000A49384600F050FE0646094900F062FFF7
:103BD0000546074900F0DAFD044600F007FF0549F5
:103BE0000880BDE8F0810000100000200000C04007
:103BF00000007A440C00002010B5FEF7DFF910BD7C
:103C000000B59BB038210DA8FCF787FB142108A84C
:103C1000FCF783FB20216846FCF77FFB01200D9019
:103C200000040F90002010900120129000200E90B0
:103C300002201590C10316914FF4E0111791002056
:103C400018900DA8FEF716FE08B1FCF7ACFD0F208A
:103C500008900220099000200A904FF480600B9099
:103C600000200C90022108A8FEF796FC08B1FCF792
:103C70009AFD02200090800302906846FEF784FBC4
:103C800008B1FCF790FD0120014908671BB000BD99
:103C9000000042427047000010B51948FFF77CFA57
:103CA00018480078401C17490870084600784828D2
:103CB00012D100200870FFF7F1FE13480068134985
:103CC000B1F89011114A42F821001046B0F8900165
:103CD000401C1146A1F890010C48B0F890016328EF
:103CE0000DD1002005E00021084A42F82010411CB7
:103CF00088B26428F7DB00200449A1F8900110BDC8
:103D0000400100202400002008000020D8060020E8
:103D100010B502681B4B98420BD0B0F1804F08D011
:103D2000194B984205D0194B984202D0184B984233
:103D300003D122F070024B681A43124B98420BD009
:103D4000B0F1804F08D0104B984205D00F4B9842ED
:103D500002D00F4B984203D122F44072CB681A4331
:103D600022F080034C6943EA040202608B68C3625C
:103D70000B688362034B984201D10B6903630123F3
:103D8000436110BD002C01400004004000080040C9
:103D9000000C004030B501F01F05012404FA05F3C2
:103DA000046A9C430462046A01F01F0502FA05F5E7
:103DB0002C43046230BD70B505466C6A606AA84247
:103DC00007D101202077A86918BB012084F83E00A4
:103DD0001FE0A06AA84207D102202077A869C0B9D5
:103DE00001213F20015514E0E06AA84207D10420D8
:103DF0002077A86968B901214020015509E0206BAE
:103E0000A84206D108202077A86910B901214120D5
:103E100001552046FFF76BFB0020207770BD70B581
:103E200005466C6A606AA84202D10120207710E042
:103E3000A06AA84202D1022020770AE0E06AA842E4
:103E400002D10420207704E0206BA84201D1082091
:103E500020772046FFF74CFB0020207770BD70B51F
:103E600005466C6A606AA84204D10120207784F874
:103E70003E001DE0A06AA84205D102202077012162
:103E80003F20015514E0E06AA84205D104202077C4
:103E90000121402001550BE0206BA84205D10820EC
:103EA000207701214120015502E0012084F83D00E6
:103EB0002046FFF76FF90020207770BD30B50C4623
:103EC000816821F47F4142EA03252543294381602B
:103ED00030BD0A46816821F0700142F007031943A2
:103EE0008160704730B5056A25F001050562026AF8
:103EF0004368846924F0700424F003040D682C43A3
:103F000022F002028D682A430D4DA84206D100BF5F
:103F100022F00802CD682A4322F00402084DA8428C
:103F200007D123F4807323F400734D692B438D690B
:103F30002B43436084614D684563026230BD0000DD
:103F4000002C014030B5056A25F010050562026AB3
:103F50004368846924F4E04424F440740D6844EA1E
:103F6000052422F020028D6842EA05120E4DA84277
:103F700007D100BF22F08002CD6842EA051222F08C
:103F80004002094DA84209D123F4806323F4006361
:103F90004D6943EA85038D6943EA85034360846183
:103FA0004D688563026230BD002C014030B5056A62
:103FB00025F480750562026A4368C46924F07004C0
:103FC00024F003040D682C4322F400728D6842EA49
:103FD00005220F4DA84207D100BF22F40062CD6830
:103FE00042EA052222F48062094DA84209D123F455
:103FF000805323F400534D6943EA05138D6943EA66
:1040000005134360C4614D68C563026230BD0000A2
:10401000002C014030B5056A25F480550562036A1D
:104020004468C26922F4E04222F440720D6842EA18
:10403000052223F400538D6843EA0533064DA84258
:1040400004D124F480444D6944EA85144460C2617B
:104050004D680564036230BD002C014030B50B464D
:104060001446026A056A25F001050562816921F09E
:10407000F00141EA041122F00A021A43816102624E
:1040800030BD30B50B461446056A25F010050562B3
:104090008169026A21F4704141EA043122F0A002F0
:1040A00042EA03128161026230BD00BFFEE70000F8
:1040B00002480068C0F30220704700000CED00E0E9
:1040C00010B5002804DB0A07130E054A135406E056
:1040D0000A07140E034A00F00F031B1FD45410BD2F
:1040E00000E400E018ED00E000247C203349087073
:1040F000334834490860FDF76DFFFFF781FDFFF796
:1041000019FCFFF7F5FBFFF701FBFFF73FFCFFF79B
:1041100043FBFFF797FB2C48FCF748FB4FF49672E4
:104120002A492948FCF77AFD0123294A0021294818
:10413000FFF7E0F92748FEF767FF3EE026492748EA
:10414000006800F023FB1F49086008460068244906
:104150000860002409E0C4F10300C10020480068A1
:10416000C84016490855601C84B2042CF3DB0020BB
:104170001C49086000240CE01B48005DC4F10301E9
:10418000C900884017490968084316490860601C3F
:1041900084B2042CF0DB1348006810490860124810
:1041A000007812490870124B044A12491248FCF771
:1041B0000AFE4FF47A70FDF757FDBFE73A00002082
:1041C00000002841300000207C000020CC010020AD
:1041D0000C000020400100200000204118000020B9
:1041E000280000202C000020420000203900002080
:1041F000340000207C0600201801002021F000423D
:10420000A2F16052B2F5801F01F0004328BFD2F145
:104210007F6C0BD95FEA001C43EAC20242EB50708C
:1042200018BF704728BF20F001007047B2F5801F0B
:10423000BCBF184670474FEA410C1CF5001F02D264
:10424000084600F0EEBC70B500F020FA00000089CE
:10425000FFF7F6BF4FF00040A0F580007047000068
:104260002DE9C04130B4DFF8A0C23CEA111418BFF8
:104270003CEA131400F0EC8081EA03051CEA1114F7
:1042800044EAD57418BF1CEA131500F0C780A4EBEC
:1042900005044FF0004545EAC12145EAC32341EA40
:1042A000505143EA525304F17F74994204F50034AB
:1042B0004FEAC0204FEAC22208BF904200F09C8023
:1042C0004FEA13650FF24016765D4FEA134506FB81
:1042D00005F7C7F1807706FB07F74FEAD737A7FB4B
:1042E00003687642C8F58038A7FB06CE38BFA8F130
:1042F000010807FB08E64FF0000EA6FB028CE6FB68
:1043000003CEDCF1000CCEF1004E38BFAEF1010E51
:10431000A6FB0C584FF000074FF00005E6FB0E8798
:10432000A1FB08C6A0FB07CE16EB0E0645F1000563
:10433000E1FB076515F1E04E7EBFA4F580345FEA2E
:1043400046066D4116F1800745F100054FEA172733
:104350004FEA066647EA0567A6F1DE46B6F1805FDA
:104360004FEA15251FD9384624F0010C05EBC4711E
:10437000BCF1FE6F01EB0C1102D8F0BCBDE800816E
:1043800024425CBF01F5801E9EEAC47F02D4F0BCCB
:10439000BDE80081244238D4F0BCA1F1C041BDE8A1
:1043A000004100F0C1B94FEAD22242EA43524FEA3B
:1043B000D323A7FB02864FEAD02040EA415007FBF7
:1043C00003661EEA0E0F4FEAD12105FB026658BFB5
:1043D000A6EB0056B6EB00564FEA520E4EEAC37EED
:1043E00018EB0E0E56EB530EBDD518EB02085E41CE
:1043F0007F1C55F10005B6E74FF480154FF000071C
:104400004FF000064FF00008ADE7F0BC4FF00000A1
:1044100001F1C04101F00041BDE8008111EA0C1F2B
:104420000CEA131500D00CE013EA0C1F00F02580F5
:104430004FF00000F0BC81EA030101F00041BDE84B
:104440000081F0BCBDE8004181EA030100F06CB9D5
:10445000F0BCBDE8004170B500F018F9097EFC3EE3
:1044600000F007B881EA03014FF0000001F00041BD
:10447000704781EA030100F057B9F0BCBDE8004184
:104480004FF0000021497047FFFDFBF9F7F5F4F20A
:10449000F0EEEDEBE9E8E6E4E3E1E0DEDDDBDAD8DF
:1044A000D7D5D4D3D1D0CFCDCCCBCAC8C7C6C5C43D
:1044B000C2C1C0BFBEBDBCBBBAB9B8B7B6B5B4B354
:1044C000B2B1B0AFAEADACABAAA9A8A8A7A6A5A43F
:1044D000A3A3A2A1A09F9F9E9D9C9C9B9A99999803
:1044E0009797969595949393929191908F8F8E8EA6
:1044F0008D8C8C8B8B8A8989888887878685858433
:1045000084838382828181800000FF070000F87F1E
:10451000B0FA80F310FA03F10AD0C3F11D0303F5DA
:1045200080634FEA41504FEA035202EBD1217047BA
:104530004FF0000070470000DFF848C170B51CEA7A
:10454000111E1EBF1CEA13159EEA0C0F95EA0C0FF4
:1045500000F06F8081EA030423EA4C134EEAD47E14
:1045600021EA4C1141F4801143F48013AE44A1FBC5
:10457000024CA0FB0365AEF17F7E361955EB0C05AE
:10458000A1FB034C4CF10003A0FB021C16EB0C0634
:10459000654153F10003094218BF46F0010613F4C8
:1045A000007F0BD14FEA03314FEA0530340341EA73
:1045B000155140EA16506FF003020AE04FEAC3219A
:1045C0004FEAC520F40241EA555140EA56506FF0D7
:1045D000020202EB2E4201EB025585EACE710AD0AF
:1045E0005FEA440C18BF24F0004450F1000041F190
:1045F000000120EAD47040F2FE7C624500D270BD1A
:10460000A84214BF4FF080444FF04044002E08BF32
:104610000024BEF1806FA8BFA1F1C041BDE8704089
:1046200080F282804FF0000001F1C04101F00041B2
:1046300070479EEA0C0F0CEA131518BF95EA0C0F91
:1046400006D04FF0000081EA030E0EF0004170BD6D
:1046500000F01CF88900013E00F007B800F009B82E
:104660004FEA430C5FEA5C5C08D081EA030100F08A
:104670005BB84FEA410C5FEA5C5CF6D14FF000009A
:10468000014970470000FF070000F87F0EF1020E9D
:104690002EF0030E5EF8046B364205D4012A43EB7C
:1046A000030515F5001F12D8012841EB010C1CF57C
:1046B000001F0CD80ED14FEAD17C15F5001F0CEB72
:1046C0004C0C0CF1020C08BF4CEBD37C04E04FF017
:1046D000080C01E04FEAD37C0CEB4C0526FA05F6FA
:1046E00006F00706B6F1040C06D20EEB860CBDE808
:1046F00070404CF0010C6047DFE80CF0090B02023F
:104700004FF000414FF00000A1F5002170BD1946A7
:104710001046012851EB010418BFD4F5001484BFE2
:10472000002001F0004170BD0808A0F500114FEA1B
:104730003101704743004FEAD30C4FEA3C0C434031
:104740001FBF40070CF1605113F0FE4F70471CF083
:10475000006F03D100200CF0004170470CF00043C3
:1047600043EA507010B540EACC0000F014FA00BFE4
:10477000000000924FEA0001FFF7D6BF4FF0004162
:104780004FF00000A1F500217047000090EA010FF2
:1047900048BF81F0004100F18282421A3CBF801A7A
:1047A00089184FEAD0524FF07F4C1CEA410FA2EB20
:1047B000D15318BF9CEA026F00F03B804FF0004CD1
:1047C0004CEA00204CEA012121FA03FC10EB0C0C0E
:1047D0001ED202F1FF325FEA1C2040EBC25038BF0C
:1047E00070471CF07F0F4FEA400C18BFBCF17F4FA1
:1047F00038BF7047C3F12003994008BF20F0010083
:10480000BCF17F4F38BF7047A0F1C04000F009BA3B
:104810004FEA3C00000A40EBC25028BF1CF0FF0FDB
:104820004FEA400CE6D018BFBCF17F4F38BF70474D
:10483000EAE79CEA026F05D010EA5C0F08BF00F0BF
:104840000040704710B500F0A6F900BF64FBBE3E03
:10485000401058BFC0F14040491058BFC1F140411D
:104860008142EFF3008070474FF47F0C1CEAD012B6
:104870001EBF1CEAD11392EA0C0F93EA0C0F00F052
:10488000858090EA010F48BF42F4807240F4000C2A
:1048900041F400002CF07F4120F07F4000B58142C0
:1048A000A2EB03020FF2081CACEB504EC0F100006B
:1048B0009EF800E04FEA4E0E00FB0EFC38BF4900A8
:1048C0004FEA2C1C02F5FA020CFB0EF34FEACE1E47
:1048D0004FEA112C4FEAC1210EEB635E42EB2242FC
:1048E0000EFB0CFC4FEA1C5300FB03114FEA112C8A
:1048F0004FEA01310EFB0CFC4FEADC4C00FB0C11C3
:10490000C14228BF09184CEB03335DF804EB10EBF0
:10491000410143EBC250B2F57C0F38BF704729D537
:1049200012F0F00F1CBF00F1C04000F000407047D3
:10493000008182838485868788898B8C8D8E8F9178
:104940009293959697999A9C9D9FA0A2A3A5A7A89C
:10495000AAACAEB0B2B3B5B7B9BCBEC0C2C5C7C9C8
:10496000CCCED1D4D7D9DCDFE2E6E9ECF0F3F7FA2C
:10497000FE0000004FEA400C0CF1807CBCF17E4F41
:1049800028BF7047B0F1C04000F04BB990EA010F6A
:104990000CEAD11348BF42F48072624538BF6345C8
:1049A00007D213F47F0F16D080EA010000F0004018
:1049B000704710B500F0EFF8097EFC3E00F005B836
:1049C00080EA010000F00040704780EA010000F03A
:1049D000004000F026B912F47F0F04BF0248704770
:1049E00080EA010000F01DB90000C07FC10DD1F1C7
:1049F0009E0206DB4FEA002343F0004323FA02F055
:104A00007047004207D54FEA4001B1F1FE4F02D294
:104A10004FF00000704710B500F0BDF849922480B7
:104A2000002070476FEA20007047000050EA010C38
:104A300000F113801CF5000F58BFBCF5000F01D426
:104A40008842704707D710F5000F58BF11F5000FC7
:104A500015D488427047894270471CF5000F04D571
:104A6000BCF5000FF7D5814270474FF0807C1CEBFE
:104A7000400F38BF1CEB410F01D28142704710B587
:104A800000F089F8922449004FF000504FF0805117
:104A9000FFF7DEBE4FF47F0C1CEAD0121EBF1CEAEB
:104AA000D11392EA0C0F93EA0C0F00F0478090EAC2
:104AB000010F48BF42F480724FF0004C4CEA0020D6
:104AC0004CEA012102EB0302A0FB0113A2F5000254
:104AD000002918BF43F001035B0028BF4FEA3303EE
:104AE00042EB22425FEA132C4CEBC2502EBFBCEBD0
:104AF000436FB2F57C0F70474FEA036CBCF1004F77
:104B000008BF20F00100B2F57C0F38BF70470BD50D
:104B100082F0FF0212F5803FC8BF704700F1C0402D
:104B2000D8BF00F00040704700F5000C5FEA4C0C65
:104B300048BF7047B0F1C04000F073B890EA010F71
:104B40000CEAD11348BF42F48072624538BF634516
:104B500004D280EA010000F00040704710B500F078
:104B60001AF800BF8900013E00F007B800F009B84C
:104B70005FEA410C5FEA1C6C08D080EA010000F09B
:104B800050B85FEA400C5FEA1C6CF6D14FF0004071
:104B9000A0F5800070470EF1020E2EF0030E5EF8B5
:104BA000044B244204D44FEA4102B2F17F4F11D8A2
:104BB0004FEA4003B3F17F4F0CD80ED14FEAD07CBF
:104BC000B2F17F4F0CEB4C0C0CF1020C08BF4CEB1C
:104BD000D17C04E04FF0080C01E04FEAD17C0CEBF3
:104BE0004C0324FA03F404F00704B4F1040C06D2D5
:104BF0000EEB840CBDE810404CF0010C6047DFE880
:104C00000CF0070802024FF00040A0F5800010BD34
:104C10000846420018BFD2F1807288BF00F0004001
:104C200010BDFF2141EAD050C005704751EA000C89
:104C300000F113801CF5000F58BFBCF5000F01D424
:104C40008142704707D711F5000F58BF10F5000FCC
:104C500015D481427047894270471CF5000F04D576
:104C6000BCF5000FF7D5884270474FF0807C1CEBF5
:104C7000410F38BF1CEB400F01D28842704780EAD9
:104C8000010081EA000180EA0100FFF7F8BE0000A0
:104C900090EA010F48BF81F000413FF57EAD421A16
:104CA00004D882F00042A0EB020011444FEAD05237
:104CB0004FF07F4C1CEA410FA2EBD15318BF9CEA86
:104CC000026F4AD04FF0004C4CEA00204CEA012120
:104CD00021FA03FCB0EB0C0C0FD412F0FE0F36D00F
:104CE0005FEA4C001DD5001240EBC25038BF704740
:104CF0001CF03F0F18BF70470BE0A2F101025FEA02
:104D00001C2040EBC25038BF70471CF07F0F18BF0B
:104D10007047C3F12003994014BF401E20F00100EA
:104D2000704780084FEA122308BF7047B0FA80FC32
:104D3000A2EB0C02CCF1280C60FA0CF093EA122FD3
:104D400004BF00EBC25070474FEAC3707047130AAC
:104D50005FEADC1008BF7047F6E79CEA026F04D0F8
:104D600010EA5C0F08BF0020704710B5FFF713FF73
:104D700040DFF63E81F00040704700000000000078
:104D800000000102030406070809000000000102F8
:104D900003040000B44D0008000000207C00000067
:104DA0008C010008304E00087C000020540E0000EA
:104DB000A801000800000000000000000000000042
:104DC0000000000000000000000000000000003FA4
:104DD00000000000000000000000000000000000D3
:104DE00000000000000000000000000000000000C3
:104DF00000000000000000000000000000000000B3
:104E00008FC2753DCDCC4C3D0AD7A33B00000000BE
:104E10000000000000000000000000000000000092
:104E20000000000010000000010000000024F40059
:04000005080001519D
:00000001FF
